{
  "_format": "hh-sol-artifact-1",
  "contractName": "LonelyGhosts",
  "sourceName": "contracts/LonelyGhosts.sol",
  "abi": [
    {
      "inputs": [
        {
          "internalType": "uint256",
          "name": "_price",
          "type": "uint256"
        },
        {
          "internalType": "string",
          "name": "_hiddenMetadataUri",
          "type": "string"
        },
        {
          "internalType": "string",
          "name": "_cid",
          "type": "string"
        }
      ],
      "stateMutability": "nonpayable",
      "type": "constructor"
    },
    {
      "anonymous": false,
      "inputs": [
        {
          "indexed": true,
          "internalType": "address",
          "name": "owner",
          "type": "address"
        },
        {
          "indexed": true,
          "internalType": "address",
          "name": "approved",
          "type": "address"
        },
        {
          "indexed": true,
          "internalType": "uint256",
          "name": "tokenId",
          "type": "uint256"
        }
      ],
      "name": "Approval",
      "type": "event"
    },
    {
      "anonymous": false,
      "inputs": [
        {
          "indexed": true,
          "internalType": "address",
          "name": "owner",
          "type": "address"
        },
        {
          "indexed": true,
          "internalType": "address",
          "name": "operator",
          "type": "address"
        },
        {
          "indexed": false,
          "internalType": "bool",
          "name": "approved",
          "type": "bool"
        }
      ],
      "name": "ApprovalForAll",
      "type": "event"
    },
    {
      "anonymous": false,
      "inputs": [
        {
          "indexed": false,
          "internalType": "address",
          "name": "sender",
          "type": "address"
        },
        {
          "indexed": false,
          "internalType": "uint256",
          "name": "tokenId",
          "type": "uint256"
        }
      ],
      "name": "GhostMinted",
      "type": "event"
    },
    {
      "anonymous": false,
      "inputs": [
        {
          "indexed": true,
          "internalType": "address",
          "name": "previousOwner",
          "type": "address"
        },
        {
          "indexed": true,
          "internalType": "address",
          "name": "newOwner",
          "type": "address"
        }
      ],
      "name": "OwnershipTransferred",
      "type": "event"
    },
    {
      "anonymous": false,
      "inputs": [
        {
          "indexed": true,
          "internalType": "address",
          "name": "from",
          "type": "address"
        },
        {
          "indexed": true,
          "internalType": "address",
          "name": "to",
          "type": "address"
        },
        {
          "indexed": true,
          "internalType": "uint256",
          "name": "tokenId",
          "type": "uint256"
        }
      ],
      "name": "Transfer",
      "type": "event"
    },
    {
      "inputs": [
        {
          "internalType": "address",
          "name": "to",
          "type": "address"
        },
        {
          "internalType": "uint256",
          "name": "tokenId",
          "type": "uint256"
        }
      ],
      "name": "approve",
      "outputs": [],
      "stateMutability": "nonpayable",
      "type": "function"
    },
    {
      "inputs": [
        {
          "internalType": "address",
          "name": "owner",
          "type": "address"
        }
      ],
      "name": "balanceOf",
      "outputs": [
        {
          "internalType": "uint256",
          "name": "",
          "type": "uint256"
        }
      ],
      "stateMutability": "view",
      "type": "function"
    },
    {
      "inputs": [],
      "name": "getAmountMinted",
      "outputs": [
        {
          "internalType": "uint256",
          "name": "",
          "type": "uint256"
        }
      ],
      "stateMutability": "view",
      "type": "function"
    },
    {
      "inputs": [
        {
          "internalType": "uint256",
          "name": "tokenId",
          "type": "uint256"
        }
      ],
      "name": "getApproved",
      "outputs": [
        {
          "internalType": "address",
          "name": "",
          "type": "address"
        }
      ],
      "stateMutability": "view",
      "type": "function"
    },
    {
      "inputs": [],
      "name": "getMaxSupply",
      "outputs": [
        {
          "internalType": "uint256",
          "name": "",
          "type": "uint256"
        }
      ],
      "stateMutability": "view",
      "type": "function"
    },
    {
      "inputs": [],
      "name": "getPrice",
      "outputs": [
        {
          "internalType": "uint256",
          "name": "",
          "type": "uint256"
        }
      ],
      "stateMutability": "view",
      "type": "function"
    },
    {
      "inputs": [],
      "name": "hiddenMetadataUri",
      "outputs": [
        {
          "internalType": "string",
          "name": "",
          "type": "string"
        }
      ],
      "stateMutability": "view",
      "type": "function"
    },
    {
      "inputs": [
        {
          "internalType": "address",
          "name": "owner",
          "type": "address"
        },
        {
          "internalType": "address",
          "name": "operator",
          "type": "address"
        }
      ],
      "name": "isApprovedForAll",
      "outputs": [
        {
          "internalType": "bool",
          "name": "",
          "type": "bool"
        }
      ],
      "stateMutability": "view",
      "type": "function"
    },
    {
      "inputs": [],
      "name": "mintGhost",
      "outputs": [],
      "stateMutability": "payable",
      "type": "function"
    },
    {
      "inputs": [],
      "name": "name",
      "outputs": [
        {
          "internalType": "string",
          "name": "",
          "type": "string"
        }
      ],
      "stateMutability": "view",
      "type": "function"
    },
    {
      "inputs": [],
      "name": "owner",
      "outputs": [
        {
          "internalType": "address",
          "name": "",
          "type": "address"
        }
      ],
      "stateMutability": "view",
      "type": "function"
    },
    {
      "inputs": [
        {
          "internalType": "uint256",
          "name": "tokenId",
          "type": "uint256"
        }
      ],
      "name": "ownerOf",
      "outputs": [
        {
          "internalType": "address",
          "name": "",
          "type": "address"
        }
      ],
      "stateMutability": "view",
      "type": "function"
    },
    {
      "inputs": [],
      "name": "paused",
      "outputs": [
        {
          "internalType": "bool",
          "name": "",
          "type": "bool"
        }
      ],
      "stateMutability": "view",
      "type": "function"
    },
    {
      "inputs": [],
      "name": "price",
      "outputs": [
        {
          "internalType": "uint256",
          "name": "",
          "type": "uint256"
        }
      ],
      "stateMutability": "view",
      "type": "function"
    },
    {
      "inputs": [],
      "name": "renounceOwnership",
      "outputs": [],
      "stateMutability": "nonpayable",
      "type": "function"
    },
    {
      "inputs": [],
      "name": "revealed",
      "outputs": [
        {
          "internalType": "bool",
          "name": "",
          "type": "bool"
        }
      ],
      "stateMutability": "view",
      "type": "function"
    },
    {
      "inputs": [
        {
          "internalType": "address",
          "name": "from",
          "type": "address"
        },
        {
          "internalType": "address",
          "name": "to",
          "type": "address"
        },
        {
          "internalType": "uint256",
          "name": "tokenId",
          "type": "uint256"
        }
      ],
      "name": "safeTransferFrom",
      "outputs": [],
      "stateMutability": "nonpayable",
      "type": "function"
    },
    {
      "inputs": [
        {
          "internalType": "address",
          "name": "from",
          "type": "address"
        },
        {
          "internalType": "address",
          "name": "to",
          "type": "address"
        },
        {
          "internalType": "uint256",
          "name": "tokenId",
          "type": "uint256"
        },
        {
          "internalType": "bytes",
          "name": "_data",
          "type": "bytes"
        }
      ],
      "name": "safeTransferFrom",
      "outputs": [],
      "stateMutability": "nonpayable",
      "type": "function"
    },
    {
      "inputs": [
        {
          "internalType": "address",
          "name": "operator",
          "type": "address"
        },
        {
          "internalType": "bool",
          "name": "approved",
          "type": "bool"
        }
      ],
      "name": "setApprovalForAll",
      "outputs": [],
      "stateMutability": "nonpayable",
      "type": "function"
    },
    {
      "inputs": [
        {
          "internalType": "string",
          "name": "_hiddenMetadataUri",
          "type": "string"
        }
      ],
      "name": "setHiddenMetadataUri",
      "outputs": [],
      "stateMutability": "nonpayable",
      "type": "function"
    },
    {
      "inputs": [
        {
          "internalType": "bool",
          "name": "_state",
          "type": "bool"
        }
      ],
      "name": "setPaused",
      "outputs": [],
      "stateMutability": "nonpayable",
      "type": "function"
    },
    {
      "inputs": [
        {
          "internalType": "uint256",
          "name": "_price",
          "type": "uint256"
        }
      ],
      "name": "setPrice",
      "outputs": [],
      "stateMutability": "nonpayable",
      "type": "function"
    },
    {
      "inputs": [
        {
          "internalType": "bool",
          "name": "_state",
          "type": "bool"
        }
      ],
      "name": "setRevealed",
      "outputs": [],
      "stateMutability": "nonpayable",
      "type": "function"
    },
    {
      "inputs": [
        {
          "internalType": "bytes4",
          "name": "interfaceId",
          "type": "bytes4"
        }
      ],
      "name": "supportsInterface",
      "outputs": [
        {
          "internalType": "bool",
          "name": "",
          "type": "bool"
        }
      ],
      "stateMutability": "view",
      "type": "function"
    },
    {
      "inputs": [],
      "name": "symbol",
      "outputs": [
        {
          "internalType": "string",
          "name": "",
          "type": "string"
        }
      ],
      "stateMutability": "view",
      "type": "function"
    },
    {
      "inputs": [
        {
          "internalType": "uint256",
          "name": "_tokenId",
          "type": "uint256"
        }
      ],
      "name": "tokenURI",
      "outputs": [
        {
          "internalType": "string",
          "name": "",
          "type": "string"
        }
      ],
      "stateMutability": "view",
      "type": "function"
    },
    {
      "inputs": [
        {
          "internalType": "address",
          "name": "from",
          "type": "address"
        },
        {
          "internalType": "address",
          "name": "to",
          "type": "address"
        },
        {
          "internalType": "uint256",
          "name": "tokenId",
          "type": "uint256"
        }
      ],
      "name": "transferFrom",
      "outputs": [],
      "stateMutability": "nonpayable",
      "type": "function"
    },
    {
      "inputs": [
        {
          "internalType": "address",
          "name": "newOwner",
          "type": "address"
        }
      ],
      "name": "transferOwnership",
      "outputs": [],
      "stateMutability": "nonpayable",
      "type": "function"
    },
    {
      "inputs": [],
      "name": "withdraw",
      "outputs": [],
      "stateMutability": "nonpayable",
      "type": "function"
    }
  ],
  "bytecode": "0x60806040526001600d60006101000a81548160ff0219169083151502179055506000600d60016101000a81548160ff0219169083151502179055503480156200004757600080fd5b506040516200423e3803806200423e83398181016040528101906200006d91906200066a565b6040518060400160405280600c81526020017f4c6f6e656c7947686f73747300000000000000000000000000000000000000008152506040518060400160405280600281526020017f4c470000000000000000000000000000000000000000000000000000000000008152508160009080519060200190620000f1929190620003e2565b5080600190805190602001906200010a929190620003e2565b5050506200012d620001216200019060201b60201c565b6200019860201b60201c565b600160088190555062000146836200025e60201b60201c565b6200015782620002f760201b60201c565b80600b90805190602001906200016f929190620003e2565b50620001876009620003a260201b620016671760201c565b505050620007eb565b600033905090565b6000600760009054906101000a900473ffffffffffffffffffffffffffffffffffffffff16905081600760006101000a81548173ffffffffffffffffffffffffffffffffffffffff021916908373ffffffffffffffffffffffffffffffffffffffff1602179055508173ffffffffffffffffffffffffffffffffffffffff168173ffffffffffffffffffffffffffffffffffffffff167f8be0079c531659141344cd1fd0a4f28419497f9722a3daafe3b4186f6b6457e060405160405180910390a35050565b6200026e6200019060201b60201c565b73ffffffffffffffffffffffffffffffffffffffff1662000294620003b860201b60201c565b73ffffffffffffffffffffffffffffffffffffffff1614620002ed576040517f08c379a0000000000000000000000000000000000000000000000000000000008152600401620002e49062000765565b60405180910390fd5b80600c8190555050565b620003076200019060201b60201c565b73ffffffffffffffffffffffffffffffffffffffff166200032d620003b860201b60201c565b73ffffffffffffffffffffffffffffffffffffffff161462000386576040517f08c379a00000000000000000000000000000000000000000000000000000000081526004016200037d9062000765565b60405180910390fd5b80600a90805190602001906200039e929190620003e2565b5050565b6001816000016000828254019250508190555050565b6000600760009054906101000a900473ffffffffffffffffffffffffffffffffffffffff16905090565b828054620003f090620007b6565b90600052602060002090601f01602090048101928262000414576000855562000460565b82601f106200042f57805160ff191683800117855562000460565b8280016001018555821562000460579182015b828111156200045f57825182559160200191906001019062000442565b5b5090506200046f919062000473565b5090565b5b808211156200048e57600081600090555060010162000474565b5090565b6000604051905090565b600080fd5b600080fd5b6000819050919050565b620004bb81620004a6565b8114620004c757600080fd5b50565b600081519050620004db81620004b0565b92915050565b600080fd5b600080fd5b6000601f19601f8301169050919050565b7f4e487b7100000000000000000000000000000000000000000000000000000000600052604160045260246000fd5b6200053682620004eb565b810181811067ffffffffffffffff82111715620005585762000557620004fc565b5b80604052505050565b60006200056d62000492565b90506200057b82826200052b565b919050565b600067ffffffffffffffff8211156200059e576200059d620004fc565b5b620005a982620004eb565b9050602081019050919050565b60005b83811015620005d6578082015181840152602081019050620005b9565b83811115620005e6576000848401525b50505050565b600062000603620005fd8462000580565b62000561565b905082815260208101848484011115620006225762000621620004e6565b5b6200062f848285620005b6565b509392505050565b600082601f8301126200064f576200064e620004e1565b5b815162000661848260208601620005ec565b91505092915050565b6000806000606084860312156200068657620006856200049c565b5b60006200069686828701620004ca565b935050602084015167ffffffffffffffff811115620006ba57620006b9620004a1565b5b620006c88682870162000637565b925050604084015167ffffffffffffffff811115620006ec57620006eb620004a1565b5b620006fa8682870162000637565b9150509250925092565b600082825260208201905092915050565b7f4f776e61626c653a2063616c6c6572206973206e6f7420746865206f776e6572600082015250565b60006200074d60208362000704565b91506200075a8262000715565b602082019050919050565b6000602082019050818103600083015262000780816200073e565b9050919050565b7f4e487b7100000000000000000000000000000000000000000000000000000000600052602260045260246000fd5b60006002820490506001821680620007cf57607f821691505b602082108103620007e557620007e462000787565b5b50919050565b613a4380620007fb6000396000f3fe6080604052600436106101c25760003560e01c806370a08231116100f7578063a22cb46511610095578063e0a8085311610064578063e0a80853146105fb578063e777df2014610624578063e985e9c51461064f578063f2fde38b1461068c576101c2565b8063a22cb46514610541578063a45ba8e71461056a578063b88d4fde14610595578063c87b56dd146105be576101c2565b806391b7f5ed116100d157806391b7f5ed1461049757806395d89b41146104c057806398d5fdca146104eb578063a035b1fe14610516576101c2565b806370a0823114610418578063715018a6146104555780638da5cb5b1461046c576101c2565b806342842e0e11610164578063518302271161013e578063518302271461037b5780635c975abb146103a65780635ea9b307146103d15780636352211e146103db576101c2565b806342842e0e146102fe5780634c0f38c2146103275780634fdd43cb14610352576101c2565b8063095ea7b3116101a0578063095ea7b31461026c57806316c38b3c1461029557806323b872dd146102be5780633ccfd60b146102e7576101c2565b806301ffc9a7146101c757806306fdde0314610204578063081812fc1461022f575b600080fd5b3480156101d357600080fd5b506101ee60048036038101906101e99190612469565b6106b5565b6040516101fb91906124b1565b60405180910390f35b34801561021057600080fd5b50610219610797565b6040516102269190612565565b60405180910390f35b34801561023b57600080fd5b50610256600480360381019061025191906125bd565b610829565b604051610263919061262b565b60405180910390f35b34801561027857600080fd5b50610293600480360381019061028e9190612672565b6108ae565b005b3480156102a157600080fd5b506102bc60048036038101906102b791906126de565b6109c5565b005b3480156102ca57600080fd5b506102e560048036038101906102e0919061270b565b610a5e565b005b3480156102f357600080fd5b506102fc610abe565b005b34801561030a57600080fd5b506103256004803603810190610320919061270b565b610c0f565b005b34801561033357600080fd5b5061033c610c2f565b604051610349919061276d565b60405180910390f35b34801561035e57600080fd5b50610379600480360381019061037491906128bd565b610c39565b005b34801561038757600080fd5b50610390610ccf565b60405161039d91906124b1565b60405180910390f35b3480156103b257600080fd5b506103bb610ce2565b6040516103c891906124b1565b60405180910390f35b6103d9610cf5565b005b3480156103e757600080fd5b5061040260048036038101906103fd91906125bd565b610e36565b60405161040f919061262b565b60405180910390f35b34801561042457600080fd5b5061043f600480360381019061043a9190612906565b610ee7565b60405161044c919061276d565b60405180910390f35b34801561046157600080fd5b5061046a610f9e565b005b34801561047857600080fd5b50610481611026565b60405161048e919061262b565b60405180910390f35b3480156104a357600080fd5b506104be60048036038101906104b991906125bd565b611050565b005b3480156104cc57600080fd5b506104d56110d6565b6040516104e29190612565565b60405180910390f35b3480156104f757600080fd5b50610500611168565b60405161050d919061276d565b60405180910390f35b34801561052257600080fd5b5061052b611172565b604051610538919061276d565b60405180910390f35b34801561054d57600080fd5b5061056860048036038101906105639190612933565b611178565b005b34801561057657600080fd5b5061057f61118e565b60405161058c9190612565565b60405180910390f35b3480156105a157600080fd5b506105bc60048036038101906105b79190612a14565b61121c565b005b3480156105ca57600080fd5b506105e560048036038101906105e091906125bd565b61127e565b6040516105f29190612565565b60405180910390f35b34801561060757600080fd5b50610622600480360381019061061d91906126de565b611426565b005b34801561063057600080fd5b506106396114bf565b604051610646919061276d565b60405180910390f35b34801561065b57600080fd5b5061067660048036038101906106719190612a97565b6114dc565b60405161068391906124b1565b60405180910390f35b34801561069857600080fd5b506106b360048036038101906106ae9190612906565b611570565b005b60007f80ac58cd000000000000000000000000000000000000000000000000000000007bffffffffffffffffffffffffffffffffffffffffffffffffffffffff1916827bffffffffffffffffffffffffffffffffffffffffffffffffffffffff1916148061078057507f5b5e139f000000000000000000000000000000000000000000000000000000007bffffffffffffffffffffffffffffffffffffffffffffffffffffffff1916827bffffffffffffffffffffffffffffffffffffffffffffffffffffffff1916145b80610790575061078f8261167d565b5b9050919050565b6060600080546107a690612b06565b80601f01602080910402602001604051908101604052809291908181526020018280546107d290612b06565b801561081f5780601f106107f45761010080835404028352916020019161081f565b820191906000526020600020905b81548152906001019060200180831161080257829003601f168201915b5050505050905090565b6000610834826116e7565b610873576040517f08c379a000000000000000000000000000000000000000000000000000000000815260040161086a90612ba9565b60405180910390fd5b6004600083815260200190815260200160002060009054906101000a900473ffffffffffffffffffffffffffffffffffffffff169050919050565b60006108b982610e36565b90508073ffffffffffffffffffffffffffffffffffffffff168373ffffffffffffffffffffffffffffffffffffffff1603610929576040517f08c379a000000000000000000000000000000000000000000000000000000000815260040161092090612c3b565b60405180910390fd5b8073ffffffffffffffffffffffffffffffffffffffff16610948611753565b73ffffffffffffffffffffffffffffffffffffffff161480610977575061097681610971611753565b6114dc565b5b6109b6576040517f08c379a00000000000000000000000000000000000000000000000000000000081526004016109ad90612ccd565b60405180910390fd5b6109c0838361175b565b505050565b6109cd611753565b73ffffffffffffffffffffffffffffffffffffffff166109eb611026565b73ffffffffffffffffffffffffffffffffffffffff1614610a41576040517f08c379a0000000000000000000000000000000000000000000000000000000008152600401610a3890612d39565b60405180910390fd5b80600d60006101000a81548160ff02191690831515021790555050565b610a6f610a69611753565b82611814565b610aae576040517f08c379a0000000000000000000000000000000000000000000000000000000008152600401610aa590612dcb565b60405180910390fd5b610ab98383836118f2565b505050565b610ac6611753565b73ffffffffffffffffffffffffffffffffffffffff16610ae4611026565b73ffffffffffffffffffffffffffffffffffffffff1614610b3a576040517f08c379a0000000000000000000000000000000000000000000000000000000008152600401610b3190612d39565b60405180910390fd5b600260085403610b7f576040517f08c379a0000000000000000000000000000000000000000000000000000000008152600401610b7690612e37565b60405180910390fd5b60026008819055506000610b91611026565b73ffffffffffffffffffffffffffffffffffffffff1647604051610bb490612e88565b60006040518083038185875af1925050503d8060008114610bf1576040519150601f19603f3d011682016040523d82523d6000602084013e610bf6565b606091505b5050905080610c0457600080fd5b506001600881905550565b610c2a8383836040518060200160405280600081525061121c565b505050565b60006103e8905090565b610c41611753565b73ffffffffffffffffffffffffffffffffffffffff16610c5f611026565b73ffffffffffffffffffffffffffffffffffffffff1614610cb5576040517f08c379a0000000000000000000000000000000000000000000000000000000008152600401610cac90612d39565b60405180910390fd5b80600a9080519060200190610ccb92919061235a565b5050565b600d60019054906101000a900460ff1681565b600d60009054906101000a900460ff1681565b600d60009054906101000a900460ff1615610d45576040517f08c379a0000000000000000000000000000000000000000000000000000000008152600401610d3c90612f0f565b60405180910390fd5b600c54341015610d8a576040517f08c379a0000000000000000000000000000000000000000000000000000000008152600401610d8190612f7b565b60405180910390fd5b6103e8610d976009611b58565b1115610dd8576040517f08c379a0000000000000000000000000000000000000000000000000000000008152600401610dcf90612fe7565b60405180910390fd5b6000610de46009611b58565b9050610df06009611667565b610dfa3382611b66565b7f3efe4e0e69bb5e301218b897bc488599c198626bc52d7d90eec16ab3524ee76e3382604051610e2b929190613007565b60405180910390a150565b6000806002600084815260200190815260200160002060009054906101000a900473ffffffffffffffffffffffffffffffffffffffff169050600073ffffffffffffffffffffffffffffffffffffffff168173ffffffffffffffffffffffffffffffffffffffff1603610ede576040517f08c379a0000000000000000000000000000000000000000000000000000000008152600401610ed5906130a2565b60405180910390fd5b80915050919050565b60008073ffffffffffffffffffffffffffffffffffffffff168273ffffffffffffffffffffffffffffffffffffffff1603610f57576040517f08c379a0000000000000000000000000000000000000000000000000000000008152600401610f4e90613134565b60405180910390fd5b600360008373ffffffffffffffffffffffffffffffffffffffff1673ffffffffffffffffffffffffffffffffffffffff168152602001908152602001600020549050919050565b610fa6611753565b73ffffffffffffffffffffffffffffffffffffffff16610fc4611026565b73ffffffffffffffffffffffffffffffffffffffff161461101a576040517f08c379a000000000000000000000000000000000000000000000000000000000815260040161101190612d39565b60405180910390fd5b6110246000611b84565b565b6000600760009054906101000a900473ffffffffffffffffffffffffffffffffffffffff16905090565b611058611753565b73ffffffffffffffffffffffffffffffffffffffff16611076611026565b73ffffffffffffffffffffffffffffffffffffffff16146110cc576040517f08c379a00000000000000000000000000000000000000000000000000000000081526004016110c390612d39565b60405180910390fd5b80600c8190555050565b6060600180546110e590612b06565b80601f016020809104026020016040519081016040528092919081815260200182805461111190612b06565b801561115e5780601f106111335761010080835404028352916020019161115e565b820191906000526020600020905b81548152906001019060200180831161114157829003601f168201915b5050505050905090565b6000600c54905090565b600c5481565b61118a611183611753565b8383611c4a565b5050565b600a805461119b90612b06565b80601f01602080910402602001604051908101604052809291908181526020018280546111c790612b06565b80156112145780601f106111e957610100808354040283529160200191611214565b820191906000526020600020905b8154815290600101906020018083116111f757829003601f168201915b505050505081565b61122d611227611753565b83611814565b61126c576040517f08c379a000000000000000000000000000000000000000000000000000000000815260040161126390612dcb565b60405180910390fd5b61127884848484611db6565b50505050565b606061128a6009611b58565b8211156112cc576040517f08c379a00000000000000000000000000000000000000000000000000000000081526004016112c3906131c6565b60405180910390fd5b60001515600d60019054906101000a900460ff1615150361137957600a80546112f490612b06565b80601f016020809104026020016040519081016040528092919081815260200182805461132090612b06565b801561136d5780601f106113425761010080835404028352916020019161136d565b820191906000526020600020905b81548152906001019060200180831161135057829003601f168201915b50505050509050611421565b60006040518060400160405280600781526020017f697066733a2f2f00000000000000000000000000000000000000000000000000815250905060006040518060400160405280600581526020017f2e6a736f6e000000000000000000000000000000000000000000000000000000815250905081600b6113f986611e12565b8360405160200161140d9493929190613302565b604051602081830303815290604052925050505b919050565b61142e611753565b73ffffffffffffffffffffffffffffffffffffffff1661144c611026565b73ffffffffffffffffffffffffffffffffffffffff16146114a2576040517f08c379a000000000000000000000000000000000000000000000000000000000815260040161149990612d39565b60405180910390fd5b80600d60016101000a81548160ff02191690831515021790555050565b600060016114cd6009611b58565b6114d7919061337a565b905090565b6000600560008473ffffffffffffffffffffffffffffffffffffffff1673ffffffffffffffffffffffffffffffffffffffff16815260200190815260200160002060008373ffffffffffffffffffffffffffffffffffffffff1673ffffffffffffffffffffffffffffffffffffffff16815260200190815260200160002060009054906101000a900460ff16905092915050565b611578611753565b73ffffffffffffffffffffffffffffffffffffffff16611596611026565b73ffffffffffffffffffffffffffffffffffffffff16146115ec576040517f08c379a00000000000000000000000000000000000000000000000000000000081526004016115e390612d39565b60405180910390fd5b600073ffffffffffffffffffffffffffffffffffffffff168173ffffffffffffffffffffffffffffffffffffffff160361165b576040517f08c379a000000000000000000000000000000000000000000000000000000000815260040161165290613420565b60405180910390fd5b61166481611b84565b50565b6001816000016000828254019250508190555050565b60007f01ffc9a7000000000000000000000000000000000000000000000000000000007bffffffffffffffffffffffffffffffffffffffffffffffffffffffff1916827bffffffffffffffffffffffffffffffffffffffffffffffffffffffff1916149050919050565b60008073ffffffffffffffffffffffffffffffffffffffff166002600084815260200190815260200160002060009054906101000a900473ffffffffffffffffffffffffffffffffffffffff1673ffffffffffffffffffffffffffffffffffffffff1614159050919050565b600033905090565b816004600083815260200190815260200160002060006101000a81548173ffffffffffffffffffffffffffffffffffffffff021916908373ffffffffffffffffffffffffffffffffffffffff160217905550808273ffffffffffffffffffffffffffffffffffffffff166117ce83610e36565b73ffffffffffffffffffffffffffffffffffffffff167f8c5be1e5ebec7d5bd14f71427d1e84f3dd0314c0f7b2291e5b200ac8c7c3b92560405160405180910390a45050565b600061181f826116e7565b61185e576040517f08c379a0000000000000000000000000000000000000000000000000000000008152600401611855906134b2565b60405180910390fd5b600061186983610e36565b90508073ffffffffffffffffffffffffffffffffffffffff168473ffffffffffffffffffffffffffffffffffffffff1614806118ab57506118aa81856114dc565b5b806118e957508373ffffffffffffffffffffffffffffffffffffffff166118d184610829565b73ffffffffffffffffffffffffffffffffffffffff16145b91505092915050565b8273ffffffffffffffffffffffffffffffffffffffff1661191282610e36565b73ffffffffffffffffffffffffffffffffffffffff1614611968576040517f08c379a000000000000000000000000000000000000000000000000000000000815260040161195f90613544565b60405180910390fd5b600073ffffffffffffffffffffffffffffffffffffffff168273ffffffffffffffffffffffffffffffffffffffff16036119d7576040517f08c379a00000000000000000000000000000000000000000000000000000000081526004016119ce906135d6565b60405180910390fd5b6119e2838383611f72565b6119ed60008261175b565b6001600360008573ffffffffffffffffffffffffffffffffffffffff1673ffffffffffffffffffffffffffffffffffffffff1681526020019081526020016000206000828254611a3d919061337a565b925050819055506001600360008473ffffffffffffffffffffffffffffffffffffffff1673ffffffffffffffffffffffffffffffffffffffff1681526020019081526020016000206000828254611a9491906135f6565b92505081905550816002600083815260200190815260200160002060006101000a81548173ffffffffffffffffffffffffffffffffffffffff021916908373ffffffffffffffffffffffffffffffffffffffff160217905550808273ffffffffffffffffffffffffffffffffffffffff168473ffffffffffffffffffffffffffffffffffffffff167fddf252ad1be2c89b69c2b068fc378daa952ba7f163c4a11628f55a4df523b3ef60405160405180910390a4611b53838383611f77565b505050565b600081600001549050919050565b611b80828260405180602001604052806000815250611f7c565b5050565b6000600760009054906101000a900473ffffffffffffffffffffffffffffffffffffffff16905081600760006101000a81548173ffffffffffffffffffffffffffffffffffffffff021916908373ffffffffffffffffffffffffffffffffffffffff1602179055508173ffffffffffffffffffffffffffffffffffffffff168173ffffffffffffffffffffffffffffffffffffffff167f8be0079c531659141344cd1fd0a4f28419497f9722a3daafe3b4186f6b6457e060405160405180910390a35050565b8173ffffffffffffffffffffffffffffffffffffffff168373ffffffffffffffffffffffffffffffffffffffff1603611cb8576040517f08c379a0000000000000000000000000000000000000000000000000000000008152600401611caf90613698565b60405180910390fd5b80600560008573ffffffffffffffffffffffffffffffffffffffff1673ffffffffffffffffffffffffffffffffffffffff16815260200190815260200160002060008473ffffffffffffffffffffffffffffffffffffffff1673ffffffffffffffffffffffffffffffffffffffff16815260200190815260200160002060006101000a81548160ff0219169083151502179055508173ffffffffffffffffffffffffffffffffffffffff168373ffffffffffffffffffffffffffffffffffffffff167f17307eab39ab6107e8899845ad3d59bd9653f200f220920489ca2b5937696c3183604051611da991906124b1565b60405180910390a3505050565b611dc18484846118f2565b611dcd84848484611fd7565b611e0c576040517f08c379a0000000000000000000000000000000000000000000000000000000008152600401611e039061372a565b60405180910390fd5b50505050565b606060008203611e59576040518060400160405280600181526020017f30000000000000000000000000000000000000000000000000000000000000008152509050611f6d565b600082905060005b60008214611e8b578080611e749061374a565b915050600a82611e8491906137c1565b9150611e61565b60008167ffffffffffffffff811115611ea757611ea6612792565b5b6040519080825280601f01601f191660200182016040528015611ed95781602001600182028036833780820191505090505b5090505b60008514611f6657600182611ef2919061337a565b9150600a85611f0191906137f2565b6030611f0d91906135f6565b60f81b818381518110611f2357611f22613823565b5b60200101907effffffffffffffffffffffffffffffffffffffffffffffffffffffffffffff1916908160001a905350600a85611f5f91906137c1565b9450611edd565b8093505050505b919050565b505050565b505050565b611f86838361215e565b611f936000848484611fd7565b611fd2576040517f08c379a0000000000000000000000000000000000000000000000000000000008152600401611fc99061372a565b60405180910390fd5b505050565b6000611ff88473ffffffffffffffffffffffffffffffffffffffff16612337565b15612151578373ffffffffffffffffffffffffffffffffffffffff1663150b7a02612021611753565b8786866040518563ffffffff1660e01b815260040161204394939291906138a7565b6020604051808303816000875af192505050801561207f57506040513d601f19601f8201168201806040525081019061207c9190613908565b60015b612101573d80600081146120af576040519150601f19603f3d011682016040523d82523d6000602084013e6120b4565b606091505b5060008151036120f9576040517f08c379a00000000000000000000000000000000000000000000000000000000081526004016120f09061372a565b60405180910390fd5b805181602001fd5b63150b7a0260e01b7bffffffffffffffffffffffffffffffffffffffffffffffffffffffff1916817bffffffffffffffffffffffffffffffffffffffffffffffffffffffff191614915050612156565b600190505b949350505050565b600073ffffffffffffffffffffffffffffffffffffffff168273ffffffffffffffffffffffffffffffffffffffff16036121cd576040517f08c379a00000000000000000000000000000000000000000000000000000000081526004016121c490613981565b60405180910390fd5b6121d6816116e7565b15612216576040517f08c379a000000000000000000000000000000000000000000000000000000000815260040161220d906139ed565b60405180910390fd5b61222260008383611f72565b6001600360008473ffffffffffffffffffffffffffffffffffffffff1673ffffffffffffffffffffffffffffffffffffffff168152602001908152602001600020600082825461227291906135f6565b92505081905550816002600083815260200190815260200160002060006101000a81548173ffffffffffffffffffffffffffffffffffffffff021916908373ffffffffffffffffffffffffffffffffffffffff160217905550808273ffffffffffffffffffffffffffffffffffffffff16600073ffffffffffffffffffffffffffffffffffffffff167fddf252ad1be2c89b69c2b068fc378daa952ba7f163c4a11628f55a4df523b3ef60405160405180910390a461233360008383611f77565b5050565b6000808273ffffffffffffffffffffffffffffffffffffffff163b119050919050565b82805461236690612b06565b90600052602060002090601f01602090048101928261238857600085556123cf565b82601f106123a157805160ff19168380011785556123cf565b828001600101855582156123cf579182015b828111156123ce5782518255916020019190600101906123b3565b5b5090506123dc91906123e0565b5090565b5b808211156123f95760008160009055506001016123e1565b5090565b6000604051905090565b600080fd5b600080fd5b60007fffffffff0000000000000000000000000000000000000000000000000000000082169050919050565b61244681612411565b811461245157600080fd5b50565b6000813590506124638161243d565b92915050565b60006020828403121561247f5761247e612407565b5b600061248d84828501612454565b91505092915050565b60008115159050919050565b6124ab81612496565b82525050565b60006020820190506124c660008301846124a2565b92915050565b600081519050919050565b600082825260208201905092915050565b60005b838110156125065780820151818401526020810190506124eb565b83811115612515576000848401525b50505050565b6000601f19601f8301169050919050565b6000612537826124cc565b61254181856124d7565b93506125518185602086016124e8565b61255a8161251b565b840191505092915050565b6000602082019050818103600083015261257f818461252c565b905092915050565b6000819050919050565b61259a81612587565b81146125a557600080fd5b50565b6000813590506125b781612591565b92915050565b6000602082840312156125d3576125d2612407565b5b60006125e1848285016125a8565b91505092915050565b600073ffffffffffffffffffffffffffffffffffffffff82169050919050565b6000612615826125ea565b9050919050565b6126258161260a565b82525050565b6000602082019050612640600083018461261c565b92915050565b61264f8161260a565b811461265a57600080fd5b50565b60008135905061266c81612646565b92915050565b6000806040838503121561268957612688612407565b5b60006126978582860161265d565b92505060206126a8858286016125a8565b9150509250929050565b6126bb81612496565b81146126c657600080fd5b50565b6000813590506126d8816126b2565b92915050565b6000602082840312156126f4576126f3612407565b5b6000612702848285016126c9565b91505092915050565b60008060006060848603121561272457612723612407565b5b60006127328682870161265d565b93505060206127438682870161265d565b9250506040612754868287016125a8565b9150509250925092565b61276781612587565b82525050565b6000602082019050612782600083018461275e565b92915050565b600080fd5b600080fd5b7f4e487b7100000000000000000000000000000000000000000000000000000000600052604160045260246000fd5b6127ca8261251b565b810181811067ffffffffffffffff821117156127e9576127e8612792565b5b80604052505050565b60006127fc6123fd565b905061280882826127c1565b919050565b600067ffffffffffffffff82111561282857612827612792565b5b6128318261251b565b9050602081019050919050565b82818337600083830152505050565b600061286061285b8461280d565b6127f2565b90508281526020810184848401111561287c5761287b61278d565b5b61288784828561283e565b509392505050565b600082601f8301126128a4576128a3612788565b5b81356128b484826020860161284d565b91505092915050565b6000602082840312156128d3576128d2612407565b5b600082013567ffffffffffffffff8111156128f1576128f061240c565b5b6128fd8482850161288f565b91505092915050565b60006020828403121561291c5761291b612407565b5b600061292a8482850161265d565b91505092915050565b6000806040838503121561294a57612949612407565b5b60006129588582860161265d565b9250506020612969858286016126c9565b9150509250929050565b600067ffffffffffffffff82111561298e5761298d612792565b5b6129978261251b565b9050602081019050919050565b60006129b76129b284612973565b6127f2565b9050828152602081018484840111156129d3576129d261278d565b5b6129de84828561283e565b509392505050565b600082601f8301126129fb576129fa612788565b5b8135612a0b8482602086016129a4565b91505092915050565b60008060008060808587031215612a2e57612a2d612407565b5b6000612a3c8782880161265d565b9450506020612a4d8782880161265d565b9350506040612a5e878288016125a8565b925050606085013567ffffffffffffffff811115612a7f57612a7e61240c565b5b612a8b878288016129e6565b91505092959194509250565b60008060408385031215612aae57612aad612407565b5b6000612abc8582860161265d565b9250506020612acd8582860161265d565b9150509250929050565b7f4e487b7100000000000000000000000000000000000000000000000000000000600052602260045260246000fd5b60006002820490506001821680612b1e57607f821691505b602082108103612b3157612b30612ad7565b5b50919050565b7f4552433732313a20617070726f76656420717565727920666f72206e6f6e657860008201527f697374656e7420746f6b656e0000000000000000000000000000000000000000602082015250565b6000612b93602c836124d7565b9150612b9e82612b37565b604082019050919050565b60006020820190508181036000830152612bc281612b86565b9050919050565b7f4552433732313a20617070726f76616c20746f2063757272656e74206f776e6560008201527f7200000000000000000000000000000000000000000000000000000000000000602082015250565b6000612c256021836124d7565b9150612c3082612bc9565b604082019050919050565b60006020820190508181036000830152612c5481612c18565b9050919050565b7f4552433732313a20617070726f76652063616c6c6572206973206e6f74206f7760008201527f6e6572206e6f7220617070726f76656420666f7220616c6c0000000000000000602082015250565b6000612cb76038836124d7565b9150612cc282612c5b565b604082019050919050565b60006020820190508181036000830152612ce681612caa565b9050919050565b7f4f776e61626c653a2063616c6c6572206973206e6f7420746865206f776e6572600082015250565b6000612d236020836124d7565b9150612d2e82612ced565b602082019050919050565b60006020820190508181036000830152612d5281612d16565b9050919050565b7f4552433732313a207472616e736665722063616c6c6572206973206e6f74206f60008201527f776e6572206e6f7220617070726f766564000000000000000000000000000000602082015250565b6000612db56031836124d7565b9150612dc082612d59565b604082019050919050565b60006020820190508181036000830152612de481612da8565b9050919050565b7f5265656e7472616e637947756172643a207265656e7472616e742063616c6c00600082015250565b6000612e21601f836124d7565b9150612e2c82612deb565b602082019050919050565b60006020820190508181036000830152612e5081612e14565b9050919050565b600081905092915050565b50565b6000612e72600083612e57565b9150612e7d82612e62565b600082019050919050565b6000612e9382612e65565b9150819050919050565b7f54686520636f6e74726163742068617320706175736564206d696e74696e672060008201527f7269676874206e6f772100000000000000000000000000000000000000000000602082015250565b6000612ef9602a836124d7565b9150612f0482612e9d565b604082019050919050565b60006020820190508181036000830152612f2881612eec565b9050919050565b7f496e73756666696369656e742066756e64732100000000000000000000000000600082015250565b6000612f656013836124d7565b9150612f7082612f2f565b602082019050919050565b60006020820190508181036000830152612f9481612f58565b9050919050565b7f4d617820737570706c7920657863656564656421000000000000000000000000600082015250565b6000612fd16014836124d7565b9150612fdc82612f9b565b602082019050919050565b6000602082019050818103600083015261300081612fc4565b9050919050565b600060408201905061301c600083018561261c565b613029602083018461275e565b9392505050565b7f4552433732313a206f776e657220717565727920666f72206e6f6e657869737460008201527f656e7420746f6b656e0000000000000000000000000000000000000000000000602082015250565b600061308c6029836124d7565b915061309782613030565b604082019050919050565b600060208201905081810360008301526130bb8161307f565b9050919050565b7f4552433732313a2062616c616e636520717565727920666f7220746865207a6560008201527f726f206164647265737300000000000000000000000000000000000000000000602082015250565b600061311e602a836124d7565b9150613129826130c2565b604082019050919050565b6000602082019050818103600083015261314d81613111565b9050919050565b7f4552433732314d657461646174613a2055524920717565727920666f72206e6f60008201527f6e6578697374656e7420746f6b656e0000000000000000000000000000000000602082015250565b60006131b0602f836124d7565b91506131bb82613154565b604082019050919050565b600060208201905081810360008301526131df816131a3565b9050919050565b600081905092915050565b60006131fc826124cc565b61320681856131e6565b93506132168185602086016124e8565b80840191505092915050565b60008190508160005260206000209050919050565b6000815461324481612b06565b61324e81866131e6565b94506001821660008114613269576001811461327a576132ad565b60ff198316865281860193506132ad565b61328385613222565b60005b838110156132a557815481890152600182019150602081019050613286565b838801955050505b50505092915050565b7f2f00000000000000000000000000000000000000000000000000000000000000600082015250565b60006132ec6001836131e6565b91506132f7826132b6565b600182019050919050565b600061330e82876131f1565b915061331a8286613237565b9150613325826132df565b915061333182856131f1565b915061333d82846131f1565b915081905095945050505050565b7f4e487b7100000000000000000000000000000000000000000000000000000000600052601160045260246000fd5b600061338582612587565b915061339083612587565b9250828210156133a3576133a261334b565b5b828203905092915050565b7f4f776e61626c653a206e6577206f776e657220697320746865207a65726f206160008201527f6464726573730000000000000000000000000000000000000000000000000000602082015250565b600061340a6026836124d7565b9150613415826133ae565b604082019050919050565b60006020820190508181036000830152613439816133fd565b9050919050565b7f4552433732313a206f70657261746f7220717565727920666f72206e6f6e657860008201527f697374656e7420746f6b656e0000000000000000000000000000000000000000602082015250565b600061349c602c836124d7565b91506134a782613440565b604082019050919050565b600060208201905081810360008301526134cb8161348f565b9050919050565b7f4552433732313a207472616e736665722066726f6d20696e636f72726563742060008201527f6f776e6572000000000000000000000000000000000000000000000000000000602082015250565b600061352e6025836124d7565b9150613539826134d2565b604082019050919050565b6000602082019050818103600083015261355d81613521565b9050919050565b7f4552433732313a207472616e7366657220746f20746865207a65726f2061646460008201527f7265737300000000000000000000000000000000000000000000000000000000602082015250565b60006135c06024836124d7565b91506135cb82613564565b604082019050919050565b600060208201905081810360008301526135ef816135b3565b9050919050565b600061360182612587565b915061360c83612587565b9250827fffffffffffffffffffffffffffffffffffffffffffffffffffffffffffffffff038211156136415761364061334b565b5b828201905092915050565b7f4552433732313a20617070726f766520746f2063616c6c657200000000000000600082015250565b60006136826019836124d7565b915061368d8261364c565b602082019050919050565b600060208201905081810360008301526136b181613675565b9050919050565b7f4552433732313a207472616e7366657220746f206e6f6e20455243373231526560008201527f63656976657220696d706c656d656e7465720000000000000000000000000000602082015250565b60006137146032836124d7565b915061371f826136b8565b604082019050919050565b6000602082019050818103600083015261374381613707565b9050919050565b600061375582612587565b91507fffffffffffffffffffffffffffffffffffffffffffffffffffffffffffffffff82036137875761378661334b565b5b600182019050919050565b7f4e487b7100000000000000000000000000000000000000000000000000000000600052601260045260246000fd5b60006137cc82612587565b91506137d783612587565b9250826137e7576137e6613792565b5b828204905092915050565b60006137fd82612587565b915061380883612587565b92508261381857613817613792565b5b828206905092915050565b7f4e487b7100000000000000000000000000000000000000000000000000000000600052603260045260246000fd5b600081519050919050565b600082825260208201905092915050565b600061387982613852565b613883818561385d565b93506138938185602086016124e8565b61389c8161251b565b840191505092915050565b60006080820190506138bc600083018761261c565b6138c9602083018661261c565b6138d6604083018561275e565b81810360608301526138e8818461386e565b905095945050505050565b6000815190506139028161243d565b92915050565b60006020828403121561391e5761391d612407565b5b600061392c848285016138f3565b91505092915050565b7f4552433732313a206d696e7420746f20746865207a65726f2061646472657373600082015250565b600061396b6020836124d7565b915061397682613935565b602082019050919050565b6000602082019050818103600083015261399a8161395e565b9050919050565b7f4552433732313a20746f6b656e20616c7265616479206d696e74656400000000600082015250565b60006139d7601c836124d7565b91506139e2826139a1565b602082019050919050565b60006020820190508181036000830152613a06816139ca565b905091905056fea2646970667358221220ebfd85bd7938f18b809969387cdc75818e824c07184d4e63a5801cf66412040264736f6c634300080d0033",
  "linkReferences": {},
  "deployedLinkReferences": {}
}